:100000000C942A000C9447000C9447000C94470071
:100010000C9447000C9447000C9447000C94470044
:100020000C9447000C9447000C9447000C94470034
:100030000C9447000C9447000C9447000C94470024
:100040000C9447000C9447000C9447000C94470014
:100050000C94470011241FBECFE5D4E0DEBFCDBF16
:1000600010E0A0E6B0E0E6E9F6E002C005900D92EF
:10007000AC3DB107D9F710E0ACEDB0E001C01D9286
:10008000A13EB107E1F70E94C5000C9449030C940E
:10009000000087E886B980E487B9089597B1892B75
:1000A00087B9369A3699FECF24B135B1932F80E0C7
:1000B000820F911D0895D39A8D9A8E9A81B3837E73
:1000C00081BB82B38C6182BB089590B3969596955F
:1000D00090FD0DC0992787FD9095FC01EE0FFF1F45
:1000E0008E0F9F1FFC01E05AFF4F8081089590B34F
:1000F00096959695969590FD0DC0992787FD9095BC
:10010000FC01EE0FFF1F8E0F9F1FFC01E05AFF4FF7
:100110008181089590B392959F7090FD0DC09927AD
:1001200087FD9095FC01EE0FFF1F8E0F9F1FFC01B6
:10013000E05AFF4F828108958FE097E20197F1F72F
:1001400000C000008FEF08959598969ADB9A80E0A2
:100150000E9465008F3F11F080936900959A9698F0
:10016000DB9A81E00E9465008F3F11F08093690067
:10017000959A969ADB9882E00E9465008F3F11F075
:10018000809369008091690008950E94D3020E94C3
:10019000A20280E80E949E028AE690E00E9482020B
:1001A00080EC0E949E0288E790E00E9482020E94FA
:1001B0005B000E944900D29AD49AD59A8F9A00E0A7
:1001C000C0E0FF24D0E00F2EF9E8CF2EF0E0DF2EC4
:1001D000F02D10E00F2EF2EA2F2EF0E03F2EF02D42
:1001E0000F2EFAE98F2EF0E09F2EF02D0F2EF2ED5C
:1001F000AF2EF0E0BF2EF02D0F2EF8EC6F2EF0E0BA
:100200007F2EF02D0F2EF9EB4F2EF0E05F2EF02D0C
:1002100003C0012FC12FD12F0E94A400813341F5CB
:10022000002321F481E00E949E0201E09798DC986F
:10023000DD98DA9880E80E949E02C6010E94820240
:1002400086B382FF07C080EC0E949E02C4010E9418
:10025000820209C086B383FF06C080EC0E949E0222
:10026000C1010E948202C49AC59AC12FF12ED4CF37
:100270000E94A4008233E1F49798DC98DD98DA9824
:10028000FF2049F481E00E949E028AEA90E00E94E9
:100290008202FF24F394C2E38D2F0E94D902C15041
:1002A000D9F7D33609F4B5CFDF5F012FC12FB4CF13
:1002B0000E94A400833301F5C49AC59A81E00E948C
:1002C0009E02C2010E94820281E0C82729F4979809
:1002D000DC98DD98DA9804C0979ADC9ADD9ADA9A6D
:1002E0008FEF91EEA4E081509040A040E1F700C074
:1002F0000000012FF12E90CF0E94A400843309F555
:10030000C49AC59A9798DC98DD98DA9881E00E94A3
:100310009E02C3010E94820280EC0E949E02812FF5
:100320000E944E000E9491028FEF90E7A2E0815060
:100330009040A040E1F700C00000012FC12FF12E36
:100340006BCF0E94A400853309F066CFC49AC59A8A
:100350009798DC98DD98DA9881E00E949E02C501AA
:100360000E94820280EC0E949E0281E00E944E0068
:100370000E9491028FEF90E7A2E081509040A04050
:10038000E1F700C00000012FC12FF12E45CFFB0186
:100390008A30910540F46AE070E00E943503805D88
:1003A0008083118208958436910550F46AE070E0EC
:1003B0000E943503605D6083805D818312820895B1
:1003C00023E0883E920780F464E670E00E943503E3
:1003D000605D60836AE070E00E943503605D618368
:1003E000805D82831382089527E280319207B0F402
:1003F00068EE73E00E943503605D608364E670E040
:100400000E943503605D61836AE070E00E943503FD
:10041000605D6283805D83831482089560E177E28A
:100420000E943503605D608368EE73E00E943503CF
:10043000605D618364E670E00E943503605D628305
:100440006AE070E00E943503605D6383805D8483B1
:1004500015820895919A8FEC97E00197F1F700C00B
:10046000000091988FEC97E00197F1F700C0000031
:100470000895CF93C82F882314F0AF9801C0AF9A86
:100480008C2F829586958695837080FD02C0AE98EC
:1004900001C0AE9A8C2F82958695877080FD02C030
:1004A000AD9801C0AD9A8C2F82958F7080FD02C0EF
:1004B000AC9801C0AC9A0E942A028C2F8695869532
:1004C000869580FD02C0AF9801C0AF9A8C2F8695AB
:1004D000869580FD02C0AE9801C0AE9A8C2F86959D
:1004E00080FD02C0AD9801C0AD9AC0FD02C0AC98BD
:1004F00001C0AC9A0E942A02CF910895909A0E945E
:1005000039020895CF93DF93EC018881882331F07D
:1005100021960E947E0289918823D9F7DF91CF919D
:100520000895CF93DF93CCEDD0E0BE010E94C701C8
:10053000CE010E948202DF91CF91089590980E948F
:100540003902089584B3806F84BB81B3836081BB1B
:10055000AF98AE98AD9AAC9A0E942A02AF98AE9826
:10056000AD9AAC980E942A028FE097E20197F1F7CA
:1005700000C0000082E00E949E0288E20E949E026B
:1005800081E00E949E028CE00E949E0286E00E9412
:100590009E0281E00E949E028FE39CE90197F1F7A1
:1005A00000C0000008958FEF87BB18BAC49AC59A9F
:1005B0000895282F6AE00E942903C49AC59890FDE7
:1005C00002C0C09801C0C09A892F869580FD02C0E4
:1005D000C19801C0C19A892F8695869580FD02C079
:1005E000C69801C0C69A96959695969511F4C798A7
:1005F00001C0C79A8FEC97E00197F1F700C00000A7
:10060000822F6AE00E942903C498C59A80FD02C027
:10061000C09801C0C09A982F969590FD02C0C198CD
:1006200001C0C19A982F9695969590FD02C0C698E4
:1006300001C0C69A86958695869580FD02C0C798AA
:1006400001C0C79A8FEC97E00197F1F700C0000056
:100650000895991B79E004C0991F961708F0961B1E
:10066000881F7A95C9F780950895AA1BBB1B51E195
:1006700007C0AA1FBB1FA617B70710F0A61BB70B12
:10068000881F991F5A95A9F780959095BC01CD01B7
:060690000895F894FFCF6D
:10069600313233343536373839FF20202057656CF0
:1006A600636F6D6520546F00454759454D4220459F
:1006B6004C45432E204B4954007465737420707565
:1006C600736820627574746F6E00506F7274422086
:1006D6003200506F72744220330074657374205375
:1006E6006576656E20736567004C4544732C4275CC
:1006F6007A2C52656C617900414443305F5445530E
:0C0706005400414443315F5445535400FB
:00000001FF
